{
  "contractName": "RestrictionMessages",
  "abi": [
    {
      "constant": true,
      "inputs": [],
      "name": "SUCCESS_CODE",
      "outputs": [
        {
          "name": "",
          "type": "uint8"
        }
      ],
      "payable": false,
      "stateMutability": "view",
      "type": "function"
    },
    {
      "constant": true,
      "inputs": [],
      "name": "FAILURE_TIMELOCK_MESSAGE",
      "outputs": [
        {
          "name": "",
          "type": "string"
        }
      ],
      "payable": false,
      "stateMutability": "view",
      "type": "function"
    },
    {
      "constant": true,
      "inputs": [],
      "name": "FAILURE_NON_WHITELIST",
      "outputs": [
        {
          "name": "",
          "type": "uint8"
        }
      ],
      "payable": false,
      "stateMutability": "view",
      "type": "function"
    },
    {
      "constant": true,
      "inputs": [],
      "name": "FAILURE_TIMELOCK",
      "outputs": [
        {
          "name": "",
          "type": "uint8"
        }
      ],
      "payable": false,
      "stateMutability": "view",
      "type": "function"
    },
    {
      "constant": true,
      "inputs": [],
      "name": "FAILURE_CONTRACT_PAUSED_MESSAGE",
      "outputs": [
        {
          "name": "",
          "type": "string"
        }
      ],
      "payable": false,
      "stateMutability": "view",
      "type": "function"
    },
    {
      "constant": true,
      "inputs": [],
      "name": "FAILURE_CONTRACT_PAUSED",
      "outputs": [
        {
          "name": "",
          "type": "uint8"
        }
      ],
      "payable": false,
      "stateMutability": "view",
      "type": "function"
    },
    {
      "constant": true,
      "inputs": [],
      "name": "UNKNOWN_ERROR",
      "outputs": [
        {
          "name": "",
          "type": "string"
        }
      ],
      "payable": false,
      "stateMutability": "view",
      "type": "function"
    },
    {
      "constant": true,
      "inputs": [],
      "name": "FAILURE_NON_WHITELIST_MESSAGE",
      "outputs": [
        {
          "name": "",
          "type": "string"
        }
      ],
      "payable": false,
      "stateMutability": "view",
      "type": "function"
    },
    {
      "constant": true,
      "inputs": [],
      "name": "SUCCESS_MESSAGE",
      "outputs": [
        {
          "name": "",
          "type": "string"
        }
      ],
      "payable": false,
      "stateMutability": "view",
      "type": "function"
    }
  ],
  "bytecode": "0x608060405234801561001057600080fd5b5061056b806100206000396000f3fe608060405234801561001057600080fd5b50600436106100935760003560e01c8063777eb99f11610066578063777eb99f1461018757806386a299fb1461020a57806397af67441461022e578063c8934462146102b1578063e7984d171461033457610093565b80630e969a0514610098578063191035ab146100bc5780631fb45ec01461013f5780632ddabee814610163575b600080fd5b6100a06103b7565b604051808260ff1660ff16815260200191505060405180910390f35b6100c46103bc565b6040518080602001828103825283818151815260200191508051906020019080838360005b838110156101045780820151818401526020810190506100e9565b50505050905090810190601f1680156101315780820380516001836020036101000a031916815260200191505b509250505060405180910390f35b6101476103d8565b604051808260ff1660ff16815260200191505060405180910390f35b61016b6103dd565b604051808260ff1660ff16815260200191505060405180910390f35b61018f6103e2565b6040518080602001828103825283818151815260200191508051906020019080838360005b838110156101cf5780820151818401526020810190506101b4565b50505050905090810190601f1680156101fc5780820380516001836020036101000a031916815260200191505b509250505060405180910390f35b6102126103fe565b604051808260ff1660ff16815260200191505060405180910390f35b610236610403565b6040518080602001828103825283818151815260200191508051906020019080838360005b8381101561027657808201518184015260208101905061025b565b50505050905090810190601f1680156102a35780820380516001836020036101000a031916815260200191505b509250505060405180910390f35b6102b961043c565b6040518080602001828103825283818151815260200191508051906020019080838360005b838110156102f95780820151818401526020810190506102de565b50505050905090810190601f1680156103265780820380516001836020036101000a031916815260200191505b509250505060405180910390f35b61033c610458565b6040518080602001828103825283818151815260200191508051906020019080838360005b8381101561037c578082015181840152602081019050610361565b50505050905090810190601f1680156103a95780820380516001836020036101000a031916815260200191505b509250505060405180910390f35b600081565b60405180606001604052806035815260200161050b6035913981565b600181565b600281565b6040518060600160405280603d8152602001610492603d913981565b600381565b6040518060400160405280601281526020017f556e6b6e6f776e204572726f7220436f6465000000000000000000000000000081525081565b6040518060600160405280603c81526020016104cf603c913981565b6040518060400160405280600781526020017f53554343455353000000000000000000000000000000000000000000000000008152508156fe546865207472616e736665722077617320726573747269637465642064756520746f2074686520636f6e7472616374206265696e67207061757365642e546865207472616e736665722077617320726573747269637465642064756520746f207768697465206c69737420636f6e66696775726174696f6e2e546865207472616e736665722077617320726573747269637465642064756520746f2074696d656c6f636b656420746f6b656e732ea165627a7a72305820f683f2ffd4aec635d88b617996a20f08c16a3dad77895faccb938a1e39cd76da0029",
  "source": "pragma solidity 0.5.8;\n\ncontract RestrictionMessages {\n    // ERC1404 Error codes and messages\n    uint8 public constant SUCCESS_CODE = 0;\n    uint8 public constant FAILURE_NON_WHITELIST = 1;\n    uint8 public constant FAILURE_TIMELOCK = 2;\n    uint8 public constant FAILURE_CONTRACT_PAUSED = 3;\n\n    string public constant SUCCESS_MESSAGE = \"SUCCESS\";\n    string public constant FAILURE_NON_WHITELIST_MESSAGE = \"The transfer was restricted due to white list configuration.\";\n    string public constant FAILURE_TIMELOCK_MESSAGE = \"The transfer was restricted due to timelocked tokens.\";\n    string public constant FAILURE_CONTRACT_PAUSED_MESSAGE = \"The transfer was restricted due to the contract being paused.\";\n    string public constant UNKNOWN_ERROR = \"Unknown Error Code\";\n}",
  "sourcePath": "/Users/JohnDoe/Desktop/erc1404-simulator/presetupERC1404/contracts/restrictions/RestrictionMessages.sol",
  "compiler": {
    "name": "solc",
    "version": "0.5.8+commit.23d335f2.Emscripten.clang"
  },
  "schemaVersion": "3.0.20",
  "updatedAt": "2020-03-03T12:32:02.200Z",
  "devdoc": {
    "methods": {}
  },
  "userdoc": {
    "methods": {}
  }
}