{
  "contractName": "Timelockable",
  "abi": [
    {
      "constant": false,
      "inputs": [
        {
          "name": "account",
          "type": "address"
        }
      ],
      "name": "addTimelocker",
      "outputs": [],
      "payable": false,
      "stateMutability": "nonpayable",
      "type": "function"
    },
    {
      "constant": true,
      "inputs": [
        {
          "name": "account",
          "type": "address"
        }
      ],
      "name": "isTimelocker",
      "outputs": [
        {
          "name": "",
          "type": "bool"
        }
      ],
      "payable": false,
      "stateMutability": "view",
      "type": "function"
    },
    {
      "constant": false,
      "inputs": [
        {
          "name": "account",
          "type": "address"
        }
      ],
      "name": "removeOwner",
      "outputs": [],
      "payable": false,
      "stateMutability": "nonpayable",
      "type": "function"
    },
    {
      "constant": true,
      "inputs": [
        {
          "name": "account",
          "type": "address"
        }
      ],
      "name": "isOwner",
      "outputs": [
        {
          "name": "",
          "type": "bool"
        }
      ],
      "payable": false,
      "stateMutability": "view",
      "type": "function"
    },
    {
      "constant": false,
      "inputs": [
        {
          "name": "account",
          "type": "address"
        }
      ],
      "name": "addOwner",
      "outputs": [],
      "payable": false,
      "stateMutability": "nonpayable",
      "type": "function"
    },
    {
      "constant": false,
      "inputs": [
        {
          "name": "account",
          "type": "address"
        }
      ],
      "name": "removeTimelocker",
      "outputs": [],
      "payable": false,
      "stateMutability": "nonpayable",
      "type": "function"
    },
    {
      "anonymous": false,
      "inputs": [
        {
          "indexed": false,
          "name": "_address",
          "type": "address"
        },
        {
          "indexed": false,
          "name": "amount",
          "type": "uint256"
        },
        {
          "indexed": false,
          "name": "releaseTime",
          "type": "uint256"
        }
      ],
      "name": "AccountLock",
      "type": "event"
    },
    {
      "anonymous": false,
      "inputs": [
        {
          "indexed": false,
          "name": "_address",
          "type": "address"
        },
        {
          "indexed": false,
          "name": "amount",
          "type": "uint256"
        }
      ],
      "name": "AccountRelease",
      "type": "event"
    },
    {
      "anonymous": false,
      "inputs": [
        {
          "indexed": true,
          "name": "addedTimelocker",
          "type": "address"
        },
        {
          "indexed": true,
          "name": "addedBy",
          "type": "address"
        }
      ],
      "name": "TimelockerAdded",
      "type": "event"
    },
    {
      "anonymous": false,
      "inputs": [
        {
          "indexed": true,
          "name": "removedTimelocker",
          "type": "address"
        },
        {
          "indexed": true,
          "name": "removedBy",
          "type": "address"
        }
      ],
      "name": "TimelockerRemoved",
      "type": "event"
    },
    {
      "anonymous": false,
      "inputs": [
        {
          "indexed": true,
          "name": "addedOwner",
          "type": "address"
        },
        {
          "indexed": true,
          "name": "addedBy",
          "type": "address"
        }
      ],
      "name": "OwnerAdded",
      "type": "event"
    },
    {
      "anonymous": false,
      "inputs": [
        {
          "indexed": true,
          "name": "removedOwner",
          "type": "address"
        },
        {
          "indexed": true,
          "name": "removedBy",
          "type": "address"
        }
      ],
      "name": "OwnerRemoved",
      "type": "event"
    },
    {
      "constant": false,
      "inputs": [
        {
          "name": "_address",
          "type": "address"
        },
        {
          "name": "amount",
          "type": "uint256"
        },
        {
          "name": "releaseTime",
          "type": "uint256"
        }
      ],
      "name": "lock",
      "outputs": [
        {
          "name": "",
          "type": "bool"
        }
      ],
      "payable": false,
      "stateMutability": "nonpayable",
      "type": "function"
    },
    {
      "constant": false,
      "inputs": [
        {
          "name": "_address",
          "type": "address"
        },
        {
          "name": "amountToRelease",
          "type": "uint256"
        }
      ],
      "name": "release",
      "outputs": [
        {
          "name": "",
          "type": "bool"
        }
      ],
      "payable": false,
      "stateMutability": "nonpayable",
      "type": "function"
    },
    {
      "constant": true,
      "inputs": [
        {
          "name": "_address",
          "type": "address"
        },
        {
          "name": "amount",
          "type": "uint256"
        },
        {
          "name": "balance",
          "type": "uint256"
        }
      ],
      "name": "checkTimelock",
      "outputs": [
        {
          "name": "",
          "type": "bool"
        }
      ],
      "payable": false,
      "stateMutability": "view",
      "type": "function"
    },
    {
      "constant": true,
      "inputs": [
        {
          "name": "_address",
          "type": "address"
        }
      ],
      "name": "checkLockup",
      "outputs": [
        {
          "name": "",
          "type": "uint256"
        },
        {
          "name": "",
          "type": "uint256"
        }
      ],
      "payable": false,
      "stateMutability": "view",
      "type": "function"
    }
  ],
  "bytecode": "0x608060405234801561001057600080fd5b5061142c806100206000396000f3fe608060405234801561001057600080fd5b506004361061009e5760003560e01c80637065cb48116100665780637065cb4814610249578063841aca441461028d5780639a6e292f146102d1578063c697e4a314610330578063e2ab691d146103a05761009e565b8063031d4053146100a35780630357371d146100e75780630c57133f1461014d578063173825d9146101a95780632f54bf6e146101ed575b600080fd5b6100e5600480360360208110156100b957600080fd5b81019080803573ffffffffffffffffffffffffffffffffffffffff169060200190929190505050610410565b005b610133600480360360408110156100fd57600080fd5b81019080803573ffffffffffffffffffffffffffffffffffffffff1690602001909291908035906020019092919050505061047a565b604051808215151515815260200191505060405180910390f35b61018f6004803603602081101561016357600080fd5b81019080803573ffffffffffffffffffffffffffffffffffffffff1690602001909291905050506107d8565b604051808215151515815260200191505060405180910390f35b6101eb600480360360208110156101bf57600080fd5b81019080803573ffffffffffffffffffffffffffffffffffffffff1690602001909291905050506107f5565b005b61022f6004803603602081101561020357600080fd5b81019080803573ffffffffffffffffffffffffffffffffffffffff1690602001909291905050506108e4565b604051808215151515815260200191505060405180910390f35b61028b6004803603602081101561025f57600080fd5b81019080803573ffffffffffffffffffffffffffffffffffffffff169060200190929190505050610901565b005b6102cf600480360360208110156102a357600080fd5b81019080803573ffffffffffffffffffffffffffffffffffffffff16906020019092919050505061096b565b005b610313600480360360208110156102e757600080fd5b81019080803573ffffffffffffffffffffffffffffffffffffffff1690602001909291905050506109d5565b604051808381526020018281526020019250505060405180910390f35b6103866004803603606081101561034657600080fd5b81019080803573ffffffffffffffffffffffffffffffffffffffff1690602001909291908035906020019092919080359060200190929190505050610a54565b604051808215151515815260200191505060405180910390f35b6103f6600480360360608110156103b657600080fd5b81019080803573ffffffffffffffffffffffffffffffffffffffff1690602001909291908035906020019092919080359060200190929190505050610b3a565b604051808215151515815260200191505060405180910390f35b610419336108e4565b61046e576040517f08c379a000000000000000000000000000000000000000000000000000000000815260040180806020018281038252602e815260200180611321602e913960400191505060405180910390fd5b61047781610d8a565b50565b6000610485336107d8565b6104da576040517f08c379a00000000000000000000000000000000000000000000000000000000081526004018080602001828103825260388152602001806112e96038913960400191505060405180910390fd5b600073ffffffffffffffffffffffffffffffffffffffff168373ffffffffffffffffffffffffffffffffffffffff161415610560576040517f08c379a00000000000000000000000000000000000000000000000000000000081526004018080602001828103825260218152602001806113e06021913960400191505060405180910390fd5b6000600260008573ffffffffffffffffffffffffffffffffffffffff1673ffffffffffffffffffffffffffffffffffffffff1681526020019081526020016000206000015490506000811415610626577f784c9f4cec58b38461217a62f8f9c0f2cac7b46c0ed23bd1a7f4a5376ac787e1846000604051808373ffffffffffffffffffffffffffffffffffffffff1673ffffffffffffffffffffffffffffffffffffffff1681526020018281526020019250505060405180910390a160019150506107d2565b6000600260008673ffffffffffffffffffffffffffffffffffffffff1673ffffffffffffffffffffffffffffffffffffffff168152602001908152602001600020600101549050600260008673ffffffffffffffffffffffffffffffffffffffff1673ffffffffffffffffffffffffffffffffffffffff168152602001908152602001600020600080820160009055600182016000905550508382106107605760006106db8584610dfb90919063ffffffff16565b90506106e8868284610b3a565b507f784c9f4cec58b38461217a62f8f9c0f2cac7b46c0ed23bd1a7f4a5376ac787e18686604051808373ffffffffffffffffffffffffffffffffffffffff1673ffffffffffffffffffffffffffffffffffffffff1681526020018281526020019250505060405180910390a1600193505050506107d2565b7f784c9f4cec58b38461217a62f8f9c0f2cac7b46c0ed23bd1a7f4a5376ac787e18583604051808373ffffffffffffffffffffffffffffffffffffffff1673ffffffffffffffffffffffffffffffffffffffff1681526020018281526020019250505060405180910390a16001925050505b92915050565b60006107ee826001610e4590919063ffffffff16565b9050919050565b6107fe336108e4565b610853576040517f08c379a000000000000000000000000000000000000000000000000000000000815260040180806020018281038252602e815260200180611321602e913960400191505060405180910390fd5b8073ffffffffffffffffffffffffffffffffffffffff163373ffffffffffffffffffffffffffffffffffffffff1614156108d8576040517f08c379a00000000000000000000000000000000000000000000000000000000081526004018080602001828103825260288152602001806113926028913960400191505060405180910390fd5b6108e181610f23565b50565b60006108fa826000610e4590919063ffffffff16565b9050919050565b61090a336108e4565b61095f576040517f08c379a000000000000000000000000000000000000000000000000000000000815260040180806020018281038252602e815260200180611321602e913960400191505060405180910390fd5b61096881610f94565b50565b610974336108e4565b6109c9576040517f08c379a000000000000000000000000000000000000000000000000000000000815260040180806020018281038252602e815260200180611321602e913960400191505060405180910390fd5b6109d281611005565b50565b6000806109e06112ce565b600260008573ffffffffffffffffffffffffffffffffffffffff1673ffffffffffffffffffffffffffffffffffffffff168152602001908152602001600020604051806040016040529081600082015481526020016001820154815250509050806020015181600001519250925050915091565b600082821015610a675760019050610b33565b6000610abe600260008773ffffffffffffffffffffffffffffffffffffffff1673ffffffffffffffffffffffffffffffffffffffff1681526020019081526020016000206000015484610dfb90919063ffffffff16565b905060008185111590506000600260008873ffffffffffffffffffffffffffffffffffffffff1673ffffffffffffffffffffffffffffffffffffffff16815260200190815260200160002060010154421190508080610b1a5750815b15610b2b5760019350505050610b33565b600093505050505b9392505050565b6000610b45336107d8565b610b9a576040517f08c379a00000000000000000000000000000000000000000000000000000000081526004018080602001828103825260388152602001806112e96038913960400191505060405180910390fd5b428211610bf2576040517f08c379a00000000000000000000000000000000000000000000000000000000081526004018080602001828103825260268152602001806113ba6026913960400191505060405180910390fd5b600073ffffffffffffffffffffffffffffffffffffffff168473ffffffffffffffffffffffffffffffffffffffff161415610c95576040517f08c379a00000000000000000000000000000000000000000000000000000000081526004018080602001828103825260208152602001807f41646472657373206d7573742062652076616c696420666f72206c6f636b757081525060200191505060405180910390fd5b610c9d6112ce565b604051806040016040528085815260200184815250905080600260008773ffffffffffffffffffffffffffffffffffffffff1673ffffffffffffffffffffffffffffffffffffffff16815260200190815260200160002060008201518160000155602082015181600101559050507fd204e81d84b52b5a19d16a46f86c9a7d66d37c207b982c21d8d1810757b61bae858585604051808473ffffffffffffffffffffffffffffffffffffffff1673ffffffffffffffffffffffffffffffffffffffff168152602001838152602001828152602001935050505060405180910390a160019150509392505050565b610d9e81600161107690919063ffffffff16565b3373ffffffffffffffffffffffffffffffffffffffff168173ffffffffffffffffffffffffffffffffffffffff167f28f069fa8730ef5d44b24faedbcabf2b254c53f4e02a953476a4015e3067714160405160405180910390a350565b6000610e3d83836040518060400160405280601e81526020017f536166654d6174683a207375627472616374696f6e206f766572666c6f770000815250611151565b905092915050565b60008073ffffffffffffffffffffffffffffffffffffffff168273ffffffffffffffffffffffffffffffffffffffff161415610ecc576040517f08c379a00000000000000000000000000000000000000000000000000000000081526004018080602001828103825260228152602001806113706022913960400191505060405180910390fd5b8260000160008373ffffffffffffffffffffffffffffffffffffffff1673ffffffffffffffffffffffffffffffffffffffff16815260200190815260200160002060009054906101000a900460ff16905092915050565b610f3781600061121190919063ffffffff16565b3373ffffffffffffffffffffffffffffffffffffffff168173ffffffffffffffffffffffffffffffffffffffff167fe594d081b4382713733fe631966432c9cea5199afb2db5c3c1931f9f9300367960405160405180910390a350565b610fa881600061107690919063ffffffff16565b3373ffffffffffffffffffffffffffffffffffffffff168173ffffffffffffffffffffffffffffffffffffffff167fc82bdbbf677a2462f2a7e22e4ba9abd209496b69cd7b868b3b1d28f76e09a40a60405160405180910390a350565b61101981600161121190919063ffffffff16565b3373ffffffffffffffffffffffffffffffffffffffff168173ffffffffffffffffffffffffffffffffffffffff167f1bac2ef39c5011bb7c20ecf6bc7cb986695b3f432a149d898c0ed368e55c780660405160405180910390a350565b6110808282610e45565b156110f3576040517f08c379a000000000000000000000000000000000000000000000000000000000815260040180806020018281038252601f8152602001807f526f6c65733a206163636f756e7420616c72656164792068617320726f6c650081525060200191505060405180910390fd5b60018260000160008373ffffffffffffffffffffffffffffffffffffffff1673ffffffffffffffffffffffffffffffffffffffff16815260200190815260200160002060006101000a81548160ff0219169083151502179055505050565b60008383111582906111fe576040517f08c379a00000000000000000000000000000000000000000000000000000000081526004018080602001828103825283818151815260200191508051906020019080838360005b838110156111c35780820151818401526020810190506111a8565b50505050905090810190601f1680156111f05780820380516001836020036101000a031916815260200191505b509250505060405180910390fd5b5060008385039050809150509392505050565b61121b8282610e45565b611270576040517f08c379a000000000000000000000000000000000000000000000000000000000815260040180806020018281038252602181526020018061134f6021913960400191505060405180910390fd5b60008260000160008373ffffffffffffffffffffffffffffffffffffffff1673ffffffffffffffffffffffffffffffffffffffff16815260200190815260200160002060006101000a81548160ff0219169083151502179055505050565b60405180604001604052806000815260200160008152509056fe54696d656c6f636b6572526f6c653a2063616c6c657220646f6573206e6f742068617665207468652054696d656c6f636b657220726f6c654f776e6572526f6c653a2063616c6c657220646f6573206e6f74206861766520746865204f776e657220726f6c65526f6c65733a206163636f756e7420646f6573206e6f74206861766520726f6c65526f6c65733a206163636f756e7420697320746865207a65726f20616464726573734f776e6572732063616e6e6f742072656d6f7665207468656d73656c766573206173206f776e657252656c656173652074696d65206e6565647320746f20626520696e207468652066757475726541646472657373206d7573742062652076616c696420666f722072656c65617365a165627a7a72305820bcd8d7ede58cb3c2573a1175d58ddcdcdaddce91a05e509582d35c38de4a2d100029",
  "source": "pragma solidity 0.5.8;\n\nimport \"@openzeppelin/contracts/math/SafeMath.sol\";\nimport \"../roles/TimelockerRole.sol\";\n\n/**\n * @title INX Timelockable\n * @dev Lockup all or a portion of an accounts tokens until an expiration date\n */\ncontract Timelockable is TimelockerRole {\n\n    using SafeMath for uint256;\n\n    struct lockupItem {\n        uint256 amount;\n        uint256 releaseTime;\n    }\n\n    mapping (address => lockupItem) lockups;\n\n    event AccountLock(address _address, uint256 amount, uint256 releaseTime);\n    event AccountRelease(address _address, uint256 amount);\n\n\n    /**\n    * @dev lock address and amount and lock it, set the release time\n    * @param _address the address to lock\n    * @param amount the amount to lock\n    * @param releaseTime of the locked amount (in seconds since the epoch)\n    */\n    function lock( address _address, uint256 amount, uint256 releaseTime) public onlyTimelocker returns (bool) {\n        require(releaseTime > block.timestamp, \"Release time needs to be in the future\");\n        require(_address != address(0), \"Address must be valid for lockup\");\n\n        lockupItem memory _lockupItem = lockupItem(amount, releaseTime);\n        lockups[_address] = _lockupItem;\n        emit AccountLock(_address, amount, releaseTime);\n        return true;\n    }\n\n    /**\n    * @dev release locked amount\n    * @param _address the address to retrieve the data from\n    * @param amountToRelease the amount to check\n    */\n    function release( address _address, uint256 amountToRelease) public onlyTimelocker returns(bool) {\n        require(_address != address(0), \"Address must be valid for release\");\n\n        uint256 _lockedAmount = lockups[_address].amount;\n\n        // nothing to release\n        if(_lockedAmount == 0){\n            emit AccountRelease(_address, 0);\n            return true;\n        }\n\n        // extract release time for re-locking\n        uint256 _releaseTime = lockups[_address].releaseTime;\n\n        // delete the lock entry\n        delete lockups[_address];\n\n        if(_lockedAmount >= amountToRelease){\n           uint256 newLockedAmount = _lockedAmount.sub(amountToRelease);\n\n           // re-lock the new locked balance\n           lock(_address, newLockedAmount, _releaseTime);\n           emit AccountRelease(_address, amountToRelease);\n           return true;\n        } else {\n            // if they requested to release more than the locked amount emit the event with the locked amount that has been released\n            emit AccountRelease(_address, _lockedAmount);\n            return true;\n        }\n    }\n\n    /**\n    * @dev return true if the given account has enough unlocked tokens to send the requested amount\n    * @param _address the address to retrieve the data from\n    * @param amount the amount to send\n    * @param balance the token balance of the sending account\n    */\n    function checkTimelock(address _address, uint256 amount, uint256 balance) external view returns (bool) {\n        // if the user does not have enough tokens to send regardless of lock return true here\n        // the failure will still fail but this should make it explicit that the transfer failure is not\n        // due to locked tokens but because of too low token balance\n        if (balance < amount) {\n            return true;\n        }\n\n        // get the sending addresses token balance that is not locked\n        uint256 nonLockedAmount = balance.sub(lockups[_address].amount);\n\n        // determine if the sending address has enough free tokens to send the entire amount\n        bool notLocked = amount <= nonLockedAmount;\n\n        // if the timelock is greater then the release time the time lock is expired\n        bool timeLockExpired = block.timestamp > lockups[_address].releaseTime;\n\n        // if the timelock is expired OR the requested amount is available the transfer is not locked\n        if(timeLockExpired || notLocked){\n            return true;\n\n        // if the timelocked is not expired AND the requested amount is not available the tranfer is locked\n        } else {\n            return false;\n        }\n    }\n\n    /**\n    * @dev get address lockup info\n    * @param _address the address to retrieve the data from\n    * @return array of 2 uint256, release time (in seconds since the epoch) and amount (in INX)\n    */\n    function checkLockup(address _address) public view returns(uint256, uint256) {\n        // copy lockup data into memory\n        lockupItem memory _lockupItem = lockups[_address];\n\n        return (_lockupItem.releaseTime, _lockupItem.amount);\n    }\n}",
  "sourcePath": "/Users/JohnDoe/Desktop/erc1404-simulator/presetupERC1404/contracts/capabilities/Timelockable.sol",
  "compiler": {
    "name": "solc",
    "version": "0.5.8+commit.23d335f2.Emscripten.clang"
  },
  "schemaVersion": "3.0.20",
  "updatedAt": "2020-03-03T12:32:02.196Z",
  "devdoc": {
    "details": "Lockup all or a portion of an accounts tokens until an expiration date",
    "methods": {
      "checkLockup(address)": {
        "details": "get address lockup info",
        "params": {
          "_address": "the address to retrieve the data from"
        },
        "return": "array of 2 uint256, release time (in seconds since the epoch) and amount (in INX)"
      },
      "checkTimelock(address,uint256,uint256)": {
        "details": "return true if the given account has enough unlocked tokens to send the requested amount",
        "params": {
          "_address": "the address to retrieve the data from",
          "amount": "the amount to send",
          "balance": "the token balance of the sending account"
        }
      },
      "lock(address,uint256,uint256)": {
        "details": "lock address and amount and lock it, set the release time",
        "params": {
          "_address": "the address to lock",
          "amount": "the amount to lock",
          "releaseTime": "of the locked amount (in seconds since the epoch)"
        }
      },
      "release(address,uint256)": {
        "details": "release locked amount",
        "params": {
          "_address": "the address to retrieve the data from",
          "amountToRelease": "the amount to check"
        }
      }
    },
    "title": "INX Timelockable"
  },
  "userdoc": {
    "methods": {}
  }
}