{
  "contractName": "TimelockerRole",
  "abi": [
    {
      "constant": false,
      "inputs": [
        {
          "name": "account",
          "type": "address"
        }
      ],
      "name": "removeOwner",
      "outputs": [],
      "payable": false,
      "stateMutability": "nonpayable",
      "type": "function"
    },
    {
      "constant": true,
      "inputs": [
        {
          "name": "account",
          "type": "address"
        }
      ],
      "name": "isOwner",
      "outputs": [
        {
          "name": "",
          "type": "bool"
        }
      ],
      "payable": false,
      "stateMutability": "view",
      "type": "function"
    },
    {
      "constant": false,
      "inputs": [
        {
          "name": "account",
          "type": "address"
        }
      ],
      "name": "addOwner",
      "outputs": [],
      "payable": false,
      "stateMutability": "nonpayable",
      "type": "function"
    },
    {
      "anonymous": false,
      "inputs": [
        {
          "indexed": true,
          "name": "addedTimelocker",
          "type": "address"
        },
        {
          "indexed": true,
          "name": "addedBy",
          "type": "address"
        }
      ],
      "name": "TimelockerAdded",
      "type": "event"
    },
    {
      "anonymous": false,
      "inputs": [
        {
          "indexed": true,
          "name": "removedTimelocker",
          "type": "address"
        },
        {
          "indexed": true,
          "name": "removedBy",
          "type": "address"
        }
      ],
      "name": "TimelockerRemoved",
      "type": "event"
    },
    {
      "anonymous": false,
      "inputs": [
        {
          "indexed": true,
          "name": "addedOwner",
          "type": "address"
        },
        {
          "indexed": true,
          "name": "addedBy",
          "type": "address"
        }
      ],
      "name": "OwnerAdded",
      "type": "event"
    },
    {
      "anonymous": false,
      "inputs": [
        {
          "indexed": true,
          "name": "removedOwner",
          "type": "address"
        },
        {
          "indexed": true,
          "name": "removedBy",
          "type": "address"
        }
      ],
      "name": "OwnerRemoved",
      "type": "event"
    },
    {
      "constant": true,
      "inputs": [
        {
          "name": "account",
          "type": "address"
        }
      ],
      "name": "isTimelocker",
      "outputs": [
        {
          "name": "",
          "type": "bool"
        }
      ],
      "payable": false,
      "stateMutability": "view",
      "type": "function"
    },
    {
      "constant": false,
      "inputs": [
        {
          "name": "account",
          "type": "address"
        }
      ],
      "name": "addTimelocker",
      "outputs": [],
      "payable": false,
      "stateMutability": "nonpayable",
      "type": "function"
    },
    {
      "constant": false,
      "inputs": [
        {
          "name": "account",
          "type": "address"
        }
      ],
      "name": "removeTimelocker",
      "outputs": [],
      "payable": false,
      "stateMutability": "nonpayable",
      "type": "function"
    }
  ],
  "bytecode": "0x608060405234801561001057600080fd5b50610995806100206000396000f3fe608060405234801561001057600080fd5b50600436106100625760003560e01c8063031d4053146100675780630c57133f146100ab578063173825d9146101075780632f54bf6e1461014b5780637065cb48146101a7578063841aca44146101eb575b600080fd5b6100a96004803603602081101561007d57600080fd5b81019080803573ffffffffffffffffffffffffffffffffffffffff16906020019092919050505061022f565b005b6100ed600480360360208110156100c157600080fd5b81019080803573ffffffffffffffffffffffffffffffffffffffff169060200190929190505050610299565b604051808215151515815260200191505060405180910390f35b6101496004803603602081101561011d57600080fd5b81019080803573ffffffffffffffffffffffffffffffffffffffff1690602001909291905050506102b6565b005b61018d6004803603602081101561016157600080fd5b81019080803573ffffffffffffffffffffffffffffffffffffffff1690602001909291905050506103a5565b604051808215151515815260200191505060405180910390f35b6101e9600480360360208110156101bd57600080fd5b81019080803573ffffffffffffffffffffffffffffffffffffffff1690602001909291905050506103c2565b005b61022d6004803603602081101561020157600080fd5b81019080803573ffffffffffffffffffffffffffffffffffffffff16906020019092919050505061042c565b005b610238336103a5565b61028d576040517f08c379a000000000000000000000000000000000000000000000000000000000815260040180806020018281038252602e8152602001806108d1602e913960400191505060405180910390fd5b61029681610496565b50565b60006102af82600161050790919063ffffffff16565b9050919050565b6102bf336103a5565b610314576040517f08c379a000000000000000000000000000000000000000000000000000000000815260040180806020018281038252602e8152602001806108d1602e913960400191505060405180910390fd5b8073ffffffffffffffffffffffffffffffffffffffff163373ffffffffffffffffffffffffffffffffffffffff161415610399576040517f08c379a00000000000000000000000000000000000000000000000000000000081526004018080602001828103825260288152602001806109426028913960400191505060405180910390fd5b6103a2816105e5565b50565b60006103bb82600061050790919063ffffffff16565b9050919050565b6103cb336103a5565b610420576040517f08c379a000000000000000000000000000000000000000000000000000000000815260040180806020018281038252602e8152602001806108d1602e913960400191505060405180910390fd5b61042981610656565b50565b610435336103a5565b61048a576040517f08c379a000000000000000000000000000000000000000000000000000000000815260040180806020018281038252602e8152602001806108d1602e913960400191505060405180910390fd5b610493816106c7565b50565b6104aa81600161073890919063ffffffff16565b3373ffffffffffffffffffffffffffffffffffffffff168173ffffffffffffffffffffffffffffffffffffffff167f28f069fa8730ef5d44b24faedbcabf2b254c53f4e02a953476a4015e3067714160405160405180910390a350565b60008073ffffffffffffffffffffffffffffffffffffffff168273ffffffffffffffffffffffffffffffffffffffff16141561058e576040517f08c379a00000000000000000000000000000000000000000000000000000000081526004018080602001828103825260228152602001806109206022913960400191505060405180910390fd5b8260000160008373ffffffffffffffffffffffffffffffffffffffff1673ffffffffffffffffffffffffffffffffffffffff16815260200190815260200160002060009054906101000a900460ff16905092915050565b6105f981600061081390919063ffffffff16565b3373ffffffffffffffffffffffffffffffffffffffff168173ffffffffffffffffffffffffffffffffffffffff167fe594d081b4382713733fe631966432c9cea5199afb2db5c3c1931f9f9300367960405160405180910390a350565b61066a81600061073890919063ffffffff16565b3373ffffffffffffffffffffffffffffffffffffffff168173ffffffffffffffffffffffffffffffffffffffff167fc82bdbbf677a2462f2a7e22e4ba9abd209496b69cd7b868b3b1d28f76e09a40a60405160405180910390a350565b6106db81600161081390919063ffffffff16565b3373ffffffffffffffffffffffffffffffffffffffff168173ffffffffffffffffffffffffffffffffffffffff167f1bac2ef39c5011bb7c20ecf6bc7cb986695b3f432a149d898c0ed368e55c780660405160405180910390a350565b6107428282610507565b156107b5576040517f08c379a000000000000000000000000000000000000000000000000000000000815260040180806020018281038252601f8152602001807f526f6c65733a206163636f756e7420616c72656164792068617320726f6c650081525060200191505060405180910390fd5b60018260000160008373ffffffffffffffffffffffffffffffffffffffff1673ffffffffffffffffffffffffffffffffffffffff16815260200190815260200160002060006101000a81548160ff0219169083151502179055505050565b61081d8282610507565b610872576040517f08c379a00000000000000000000000000000000000000000000000000000000081526004018080602001828103825260218152602001806108ff6021913960400191505060405180910390fd5b60008260000160008373ffffffffffffffffffffffffffffffffffffffff1673ffffffffffffffffffffffffffffffffffffffff16815260200190815260200160002060006101000a81548160ff021916908315150217905550505056fe4f776e6572526f6c653a2063616c6c657220646f6573206e6f74206861766520746865204f776e657220726f6c65526f6c65733a206163636f756e7420646f6573206e6f74206861766520726f6c65526f6c65733a206163636f756e7420697320746865207a65726f20616464726573734f776e6572732063616e6e6f742072656d6f7665207468656d73656c766573206173206f776e6572a165627a7a72305820f7f89e829565afd933e5a106569d785ffbc99234a6793e0c271dc2ca739dd7780029",
  "source": "pragma solidity 0.5.8;\n\nimport \"./OwnerRole.sol\";\n\ncontract TimelockerRole is OwnerRole {\n\n    event TimelockerAdded(address indexed addedTimelocker, address indexed addedBy);\n    event TimelockerRemoved(address indexed removedTimelocker, address indexed removedBy);\n\n    Roles.Role private _timelockers;\n\n    modifier onlyTimelocker() {\n        require(isTimelocker(msg.sender), \"TimelockerRole: caller does not have the Timelocker role\");\n        _;\n    }\n\n    function isTimelocker(address account) public view returns (bool) {\n        return _timelockers.has(account);\n    }\n\n    function addTimelocker(address account) public onlyOwner {\n        _addTimelocker(account);\n    }\n\n    function removeTimelocker(address account) public onlyOwner {\n        _removeTimelocker(account);\n    }\n\n    function _addTimelocker(address account) internal {\n        _timelockers.add(account);\n        emit TimelockerAdded(account, msg.sender);\n    }\n\n    function _removeTimelocker(address account) internal {\n        _timelockers.remove(account);\n        emit TimelockerRemoved(account, msg.sender);\n    }\n}",
  "sourcePath": "/Users/JohnDoe/Desktop/erc1404-simulator/presetupERC1404/contracts/roles/TimelockerRole.sol",
  "compiler": {
    "name": "solc",
    "version": "0.5.8+commit.23d335f2.Emscripten.clang"
  },
  "schemaVersion": "3.0.20",
  "updatedAt": "2020-03-03T12:32:02.209Z",
  "devdoc": {
    "methods": {}
  },
  "userdoc": {
    "methods": {}
  }
}