{
  "contractName": "TransferRestrictionsNone",
  "abi": [
    {
      "constant": true,
      "inputs": [],
      "name": "SUCCESS_CODE",
      "outputs": [
        {
          "name": "",
          "type": "uint8"
        }
      ],
      "payable": false,
      "stateMutability": "view",
      "type": "function"
    },
    {
      "constant": true,
      "inputs": [],
      "name": "FAILURE_TIMELOCK_MESSAGE",
      "outputs": [
        {
          "name": "",
          "type": "string"
        }
      ],
      "payable": false,
      "stateMutability": "view",
      "type": "function"
    },
    {
      "constant": true,
      "inputs": [],
      "name": "FAILURE_NON_WHITELIST",
      "outputs": [
        {
          "name": "",
          "type": "uint8"
        }
      ],
      "payable": false,
      "stateMutability": "view",
      "type": "function"
    },
    {
      "constant": true,
      "inputs": [],
      "name": "FAILURE_TIMELOCK",
      "outputs": [
        {
          "name": "",
          "type": "uint8"
        }
      ],
      "payable": false,
      "stateMutability": "view",
      "type": "function"
    },
    {
      "constant": true,
      "inputs": [],
      "name": "FAILURE_CONTRACT_PAUSED_MESSAGE",
      "outputs": [
        {
          "name": "",
          "type": "string"
        }
      ],
      "payable": false,
      "stateMutability": "view",
      "type": "function"
    },
    {
      "constant": true,
      "inputs": [],
      "name": "FAILURE_CONTRACT_PAUSED",
      "outputs": [
        {
          "name": "",
          "type": "uint8"
        }
      ],
      "payable": false,
      "stateMutability": "view",
      "type": "function"
    },
    {
      "constant": true,
      "inputs": [],
      "name": "UNKNOWN_ERROR",
      "outputs": [
        {
          "name": "",
          "type": "string"
        }
      ],
      "payable": false,
      "stateMutability": "view",
      "type": "function"
    },
    {
      "constant": true,
      "inputs": [],
      "name": "FAILURE_NON_WHITELIST_MESSAGE",
      "outputs": [
        {
          "name": "",
          "type": "string"
        }
      ],
      "payable": false,
      "stateMutability": "view",
      "type": "function"
    },
    {
      "constant": true,
      "inputs": [],
      "name": "SUCCESS_MESSAGE",
      "outputs": [
        {
          "name": "",
          "type": "string"
        }
      ],
      "payable": false,
      "stateMutability": "view",
      "type": "function"
    },
    {
      "constant": true,
      "inputs": [
        {
          "name": "",
          "type": "address"
        },
        {
          "name": "",
          "type": "address"
        },
        {
          "name": "",
          "type": "uint256"
        }
      ],
      "name": "detectTransferRestriction",
      "outputs": [
        {
          "name": "",
          "type": "uint8"
        }
      ],
      "payable": false,
      "stateMutability": "view",
      "type": "function"
    },
    {
      "constant": true,
      "inputs": [
        {
          "name": "restrictionCode",
          "type": "uint8"
        }
      ],
      "name": "messageForTransferRestriction",
      "outputs": [
        {
          "name": "",
          "type": "string"
        }
      ],
      "payable": false,
      "stateMutability": "view",
      "type": "function"
    },
    {
      "constant": true,
      "inputs": [],
      "name": "getSuccessCode",
      "outputs": [
        {
          "name": "",
          "type": "uint256"
        }
      ],
      "payable": false,
      "stateMutability": "view",
      "type": "function"
    }
  ],
  "bytecode": "0x608060405234801561001057600080fd5b5061077f806100206000396000f3fe608060405234801561001057600080fd5b50600436106100b45760003560e01c80637f4ab1dd116100715780637f4ab1dd1461024957806386a299fb146102f357806397af674414610317578063c89344621461039a578063d4ce14151461041d578063e7984d17146104a5576100b4565b80630e969a05146100b9578063191035ab146100dd5780631fb45ec0146101605780632ddabee8146101845780635ec64759146101a8578063777eb99f146101c6575b600080fd5b6100c1610528565b604051808260ff1660ff16815260200191505060405180910390f35b6100e561052d565b6040518080602001828103825283818151815260200191508051906020019080838360005b8381101561012557808201518184015260208101905061010a565b50505050905090810190601f1680156101525780820380516001836020036101000a031916815260200191505b509250505060405180910390f35b610168610549565b604051808260ff1660ff16815260200191505060405180910390f35b61018c61054e565b604051808260ff1660ff16815260200191505060405180910390f35b6101b0610553565b6040518082815260200191505060405180910390f35b6101ce61055e565b6040518080602001828103825283818151815260200191508051906020019080838360005b8381101561020e5780820151818401526020810190506101f3565b50505050905090810190601f16801561023b5780820380516001836020036101000a031916815260200191505b509250505060405180910390f35b6102786004803603602081101561025f57600080fd5b81019080803560ff16906020019092919050505061057a565b6040518080602001828103825283818151815260200191508051906020019080838360005b838110156102b857808201518184015260208101905061029d565b50505050905090810190601f1680156102e55780820380516001836020036101000a031916815260200191505b509250505060405180910390f35b6102fb610606565b604051808260ff1660ff16815260200191505060405180910390f35b61031f61060b565b6040518080602001828103825283818151815260200191508051906020019080838360005b8381101561035f578082015181840152602081019050610344565b50505050905090810190601f16801561038c5780820380516001836020036101000a031916815260200191505b509250505060405180910390f35b6103a2610644565b6040518080602001828103825283818151815260200191508051906020019080838360005b838110156103e25780820151818401526020810190506103c7565b50505050905090810190601f16801561040f5780820380516001836020036101000a031916815260200191505b509250505060405180910390f35b6104896004803603606081101561043357600080fd5b81019080803573ffffffffffffffffffffffffffffffffffffffff169060200190929190803573ffffffffffffffffffffffffffffffffffffffff16906020019092919080359060200190929190505050610660565b604051808260ff1660ff16815260200191505060405180910390f35b6104ad61066c565b6040518080602001828103825283818151815260200191508051906020019080838360005b838110156104ed5780820151818401526020810190506104d2565b50505050905090810190601f16801561051a5780820380516001836020036101000a031916815260200191505b509250505060405180910390f35b600081565b60405180606001604052806035815260200161071f6035913981565b600181565b600281565b60008060ff16905090565b6040518060600160405280603d81526020016106a6603d913981565b6060600060ff168260ff1614156105c8576040518060400160405280600781526020017f53554343455353000000000000000000000000000000000000000000000000008152509050610601565b6040518060400160405280601281526020017f556e6b6e6f776e204572726f7220436f6465000000000000000000000000000081525090505b919050565b600381565b6040518060400160405280601281526020017f556e6b6e6f776e204572726f7220436f6465000000000000000000000000000081525081565b6040518060600160405280603c81526020016106e3603c913981565b60008090509392505050565b6040518060400160405280600781526020017f53554343455353000000000000000000000000000000000000000000000000008152508156fe546865207472616e736665722077617320726573747269637465642064756520746f2074686520636f6e7472616374206265696e67207061757365642e546865207472616e736665722077617320726573747269637465642064756520746f207768697465206c69737420636f6e66696775726174696f6e2e546865207472616e736665722077617320726573747269637465642064756520746f2074696d656c6f636b656420746f6b656e732ea165627a7a723058206974af8ce5d84a275013a0cd80dcb256ca7cd78ce75ea9c4ca7b56625c53521a0029",
  "source": "pragma solidity 0.5.8;\n\nimport \"../1404/IERC1404.sol\";\nimport \"../1404/IERC1404Validators.sol\";\nimport \"./RestrictionMessages.sol\";\n\n/**\n * @title TransferRestrictionsNone\n * @dev Defines no restrictions on transfers, any transfer is valid if this contract is used to validate\n *      This essentially turns off all restrictions and allows transfers to behave like a standard ERC20\n */\ncontract TransferRestrictionsNone is IERC1404, RestrictionMessages, IERC1404Success {\n\n    /**\n    This function detects whether a transfer should be restricted and not allowed.\n    If the function returns SUCCESS_CODE (0) then it should be allowed.\n    */\n    function detectTransferRestriction (address, address, uint256)\n        external\n        view\n        returns (uint8)\n    {\n        return SUCCESS_CODE;\n    }\n\n    /**\n    This function allows a wallet or other client to get a human readable string to show\n    a user if a transfer was restricted.  It should return enough information for the user\n    to know why it failed.\n    */\n    function messageForTransferRestriction (uint8 restrictionCode)\n        external\n        view\n        returns (string memory)\n    {\n        if (restrictionCode == SUCCESS_CODE) {\n            return SUCCESS_MESSAGE;\n        }\n\n        return UNKNOWN_ERROR;\n    }\n\n    function getSuccessCode() external view returns (uint256) {\n      return SUCCESS_CODE;\n    }\n}",
  "sourcePath": "/Users/JohnDoe/Desktop/erc1404-simulator/presetupERC1404/contracts/restrictions/TransferRestrictionsNone.sol",
  "compiler": {
    "name": "solc",
    "version": "0.5.8+commit.23d335f2.Emscripten.clang"
  },
  "schemaVersion": "3.0.20",
  "updatedAt": "2020-03-03T12:32:02.203Z",
  "devdoc": {
    "details": "Defines no restrictions on transfers, any transfer is valid if this contract is used to validate     This essentially turns off all restrictions and allows transfers to behave like a standard ERC20",
    "methods": {},
    "title": "TransferRestrictionsNone"
  },
  "userdoc": {
    "methods": {
      "detectTransferRestriction(address,address,uint256)": {
        "notice": "This function detects whether a transfer should be restricted and not allowed. If the function returns SUCCESS_CODE (0) then it should be allowed."
      },
      "messageForTransferRestriction(uint8)": {
        "notice": "This function allows a wallet or other client to get a human readable string to show a user if a transfer was restricted.  It should return enough information for the user to know why it failed."
      }
    }
  }
}