{
  "contractName": "TransferRestrictions",
  "abi": [
    {
      "constant": true,
      "inputs": [],
      "name": "SUCCESS_CODE",
      "outputs": [
        {
          "name": "",
          "type": "uint8"
        }
      ],
      "payable": false,
      "stateMutability": "view",
      "type": "function"
    },
    {
      "constant": true,
      "inputs": [],
      "name": "FAILURE_TIMELOCK_MESSAGE",
      "outputs": [
        {
          "name": "",
          "type": "string"
        }
      ],
      "payable": false,
      "stateMutability": "view",
      "type": "function"
    },
    {
      "constant": true,
      "inputs": [],
      "name": "FAILURE_NON_WHITELIST",
      "outputs": [
        {
          "name": "",
          "type": "uint8"
        }
      ],
      "payable": false,
      "stateMutability": "view",
      "type": "function"
    },
    {
      "constant": true,
      "inputs": [],
      "name": "FAILURE_TIMELOCK",
      "outputs": [
        {
          "name": "",
          "type": "uint8"
        }
      ],
      "payable": false,
      "stateMutability": "view",
      "type": "function"
    },
    {
      "constant": true,
      "inputs": [],
      "name": "FAILURE_CONTRACT_PAUSED_MESSAGE",
      "outputs": [
        {
          "name": "",
          "type": "string"
        }
      ],
      "payable": false,
      "stateMutability": "view",
      "type": "function"
    },
    {
      "constant": true,
      "inputs": [],
      "name": "FAILURE_CONTRACT_PAUSED",
      "outputs": [
        {
          "name": "",
          "type": "uint8"
        }
      ],
      "payable": false,
      "stateMutability": "view",
      "type": "function"
    },
    {
      "constant": true,
      "inputs": [],
      "name": "UNKNOWN_ERROR",
      "outputs": [
        {
          "name": "",
          "type": "string"
        }
      ],
      "payable": false,
      "stateMutability": "view",
      "type": "function"
    },
    {
      "constant": true,
      "inputs": [],
      "name": "FAILURE_NON_WHITELIST_MESSAGE",
      "outputs": [
        {
          "name": "",
          "type": "string"
        }
      ],
      "payable": false,
      "stateMutability": "view",
      "type": "function"
    },
    {
      "constant": true,
      "inputs": [],
      "name": "SUCCESS_MESSAGE",
      "outputs": [
        {
          "name": "",
          "type": "string"
        }
      ],
      "payable": false,
      "stateMutability": "view",
      "type": "function"
    },
    {
      "inputs": [
        {
          "name": "_validators",
          "type": "address"
        }
      ],
      "payable": false,
      "stateMutability": "nonpayable",
      "type": "constructor"
    },
    {
      "constant": true,
      "inputs": [
        {
          "name": "from",
          "type": "address"
        },
        {
          "name": "to",
          "type": "address"
        },
        {
          "name": "amount",
          "type": "uint256"
        }
      ],
      "name": "detectTransferRestriction",
      "outputs": [
        {
          "name": "",
          "type": "uint8"
        }
      ],
      "payable": false,
      "stateMutability": "view",
      "type": "function"
    },
    {
      "constant": true,
      "inputs": [
        {
          "name": "restrictionCode",
          "type": "uint8"
        }
      ],
      "name": "messageForTransferRestriction",
      "outputs": [
        {
          "name": "",
          "type": "string"
        }
      ],
      "payable": false,
      "stateMutability": "view",
      "type": "function"
    },
    {
      "constant": true,
      "inputs": [],
      "name": "getSuccessCode",
      "outputs": [
        {
          "name": "",
          "type": "uint256"
        }
      ],
      "payable": false,
      "stateMutability": "view",
      "type": "function"
    }
  ],
  "bytecode": "0x608060405234801561001057600080fd5b50604051602080610c378339810180604052602081101561003057600080fd5b8101908080519060200190929190505050806000806101000a81548173ffffffffffffffffffffffffffffffffffffffff021916908373ffffffffffffffffffffffffffffffffffffffff16021790555050610ba6806100916000396000f3fe608060405234801561001057600080fd5b50600436106100b45760003560e01c80637f4ab1dd116100715780637f4ab1dd1461024957806386a299fb146102f357806397af674414610317578063c89344621461039a578063d4ce14151461041d578063e7984d17146104a5576100b4565b80630e969a05146100b9578063191035ab146100dd5780631fb45ec0146101605780632ddabee8146101845780635ec64759146101a8578063777eb99f146101c6575b600080fd5b6100c1610528565b604051808260ff1660ff16815260200191505060405180910390f35b6100e561052d565b6040518080602001828103825283818151815260200191508051906020019080838360005b8381101561012557808201518184015260208101905061010a565b50505050905090810190601f1680156101525780820380516001836020036101000a031916815260200191505b509250505060405180910390f35b610168610549565b604051808260ff1660ff16815260200191505060405180910390f35b61018c61054e565b604051808260ff1660ff16815260200191505060405180910390f35b6101b0610553565b6040518082815260200191505060405180910390f35b6101ce61055e565b6040518080602001828103825283818151815260200191508051906020019080838360005b8381101561020e5780820151818401526020810190506101f3565b50505050905090810190601f16801561023b5780820380516001836020036101000a031916815260200191505b509250505060405180910390f35b6102786004803603602081101561025f57600080fd5b81019080803560ff16906020019092919050505061057a565b6040518080602001828103825283818151815260200191508051906020019080838360005b838110156102b857808201518184015260208101905061029d565b50505050905090810190601f1680156102e55780820380516001836020036101000a031916815260200191505b509250505060405180910390f35b6102fb610693565b604051808260ff1660ff16815260200191505060405180910390f35b61031f610698565b6040518080602001828103825283818151815260200191508051906020019080838360005b8381101561035f578082015181840152602081019050610344565b50505050905090810190601f16801561038c5780820380516001836020036101000a031916815260200191505b509250505060405180910390f35b6103a26106d1565b6040518080602001828103825283818151815260200191508051906020019080838360005b838110156103e25780820151818401526020810190506103c7565b50505050905090810190601f16801561040f5780820380516001836020036101000a031916815260200191505b509250505060405180910390f35b6104896004803603606081101561043357600080fd5b81019080803573ffffffffffffffffffffffffffffffffffffffff169060200190929190803573ffffffffffffffffffffffffffffffffffffffff169060200190929190803590602001909291905050506106ed565b604051808260ff1660ff16815260200191505060405180910390f35b6104ad610a93565b6040518080602001828103825283818151815260200191508051906020019080838360005b838110156104ed5780820151818401526020810190506104d2565b50505050905090810190601f16801561051a5780820380516001836020036101000a031916815260200191505b509250505060405180910390f35b600081565b604051806060016040528060358152602001610b466035913981565b600181565b600281565b60008060ff16905090565b6040518060600160405280603d8152602001610acd603d913981565b6060600060ff168260ff1614156105c8576040518060400160405280600781526020017f5355434345535300000000000000000000000000000000000000000000000000815250905061068e565b600160ff168260ff1614156105f7576040518060600160405280603c8152602001610b0a603c9139905061068e565b600260ff168260ff16141561062657604051806060016040528060358152602001610b4660359139905061068e565b600360ff168260ff161415610655576040518060600160405280603d8152602001610acd603d9139905061068e565b6040518060400160405280601281526020017f556e6b6e6f776e204572726f7220436f6465000000000000000000000000000081525090505b919050565b600381565b6040518060400160405280601281526020017f556e6b6e6f776e204572726f7220436f6465000000000000000000000000000081525081565b6040518060600160405280603c8152602001610b0a603c913981565b60008060009054906101000a900473ffffffffffffffffffffffffffffffffffffffff1673ffffffffffffffffffffffffffffffffffffffff166399da091d85856040518363ffffffff1660e01b8152600401808373ffffffffffffffffffffffffffffffffffffffff1673ffffffffffffffffffffffffffffffffffffffff1681526020018273ffffffffffffffffffffffffffffffffffffffff1673ffffffffffffffffffffffffffffffffffffffff1681526020019250505060206040518083038186803b1580156107c157600080fd5b505afa1580156107d5573d6000803e3d6000fd5b505050506040513d60208110156107eb57600080fd5b81019080805190602001909291905050506108095760019050610a8c565b6000809054906101000a900473ffffffffffffffffffffffffffffffffffffffff1673ffffffffffffffffffffffffffffffffffffffff1663c697e4a385846000809054906101000a900473ffffffffffffffffffffffffffffffffffffffff1673ffffffffffffffffffffffffffffffffffffffff166370a08231896040518263ffffffff1660e01b8152600401808273ffffffffffffffffffffffffffffffffffffffff1673ffffffffffffffffffffffffffffffffffffffff16815260200191505060206040518083038186803b1580156108e657600080fd5b505afa1580156108fa573d6000803e3d6000fd5b505050506040513d602081101561091057600080fd5b81019080805190602001909291905050506040518463ffffffff1660e01b8152600401808473ffffffffffffffffffffffffffffffffffffffff1673ffffffffffffffffffffffffffffffffffffffff168152602001838152602001828152602001935050505060206040518083038186803b15801561098f57600080fd5b505afa1580156109a3573d6000803e3d6000fd5b505050506040513d60208110156109b957600080fd5b81019080805190602001909291905050506109d75760029050610a8c565b6000809054906101000a900473ffffffffffffffffffffffffffffffffffffffff1673ffffffffffffffffffffffffffffffffffffffff16635c975abb6040518163ffffffff1660e01b815260040160206040518083038186803b158015610a3e57600080fd5b505afa158015610a52573d6000803e3d6000fd5b505050506040513d6020811015610a6857600080fd5b810190808051906020019092919050505015610a875760039050610a8c565b600090505b9392505050565b6040518060400160405280600781526020017f53554343455353000000000000000000000000000000000000000000000000008152508156fe546865207472616e736665722077617320726573747269637465642064756520746f2074686520636f6e7472616374206265696e67207061757365642e546865207472616e736665722077617320726573747269637465642064756520746f207768697465206c69737420636f6e66696775726174696f6e2e546865207472616e736665722077617320726573747269637465642064756520746f2074696d656c6f636b656420746f6b656e732ea165627a7a723058201eaa2da0f77f21a9d84d9d7bff1ffa39fedc518d2128ab707e9b1ed1c896d8cb0029",
  "source": "pragma solidity 0.5.8;\n\nimport \"../1404/IERC1404.sol\";\nimport \"../1404/IERC1404Validators.sol\";\nimport \"./RestrictionMessages.sol\";\n\n\n/**\n * @title TransferRestrictions\n * @dev Defines the rules the validate transfers and the error messages\n */\ncontract TransferRestrictions is IERC1404, RestrictionMessages, IERC1404Success {\n\n    IERC1404Validators validators;\n\n    /**\n    Constructor sets the address the validators contract which should be the token contract\n    */\n    constructor(address _validators) public\n    {\n        validators = IERC1404Validators(_validators);\n    }\n\n    /**\n    This function detects whether a transfer should be restricted and not allowed.\n    If the function returns SUCCESS_CODE (0) then it should be allowed.\n    */\n    function detectTransferRestriction (address from, address to, uint256 amount)\n        external\n        view\n        returns (uint8)\n    {\n        // Confirm that that addresses are whitelisted\n        if(!validators.checkWhitelists(from,to)) {\n            return FAILURE_NON_WHITELIST;\n        }\n\n        // If the from account is locked up, then don't allow the transfer\n        if(!validators.checkTimelock(from, amount, validators.balanceOf(from))) {\n            return FAILURE_TIMELOCK;\n        }\n\n        // If the entire contract is paused, then the transfer should be prevented\n        if(validators.paused()) {\n            return FAILURE_CONTRACT_PAUSED;\n        }\n\n        // If no restrictions were triggered return success\n        return SUCCESS_CODE;\n    }\n\n    /**\n    This function allows a wallet or other client to get a human readable string to show\n    a user if a transfer was restricted.  It should return enough information for the user\n    to know why it failed.\n    */\n    function messageForTransferRestriction (uint8 restrictionCode)\n        external\n        view\n        returns (string memory)\n    {\n        if (restrictionCode == SUCCESS_CODE) {\n            return SUCCESS_MESSAGE;\n        }\n\n        if (restrictionCode == FAILURE_NON_WHITELIST) {\n            return FAILURE_NON_WHITELIST_MESSAGE;\n        }\n\n        if (restrictionCode == FAILURE_TIMELOCK) {\n            return FAILURE_TIMELOCK_MESSAGE;\n        }\n\n        if (restrictionCode == FAILURE_CONTRACT_PAUSED) {\n            return FAILURE_CONTRACT_PAUSED_MESSAGE;\n        }\n\n        return UNKNOWN_ERROR;\n    }\n\n    function getSuccessCode() external view returns (uint256) {\n      return SUCCESS_CODE;\n    }\n}",
  "sourcePath": "/Users/JohnDoe/Desktop/erc1404-simulator/presetupERC1404/contracts/restrictions/TransferRestrictions.sol",
  "compiler": {
    "name": "solc",
    "version": "0.5.8+commit.23d335f2.Emscripten.clang"
  },
  "schemaVersion": "3.0.16",
  "updatedAt": "2020-03-03T20:02:27.163Z",
  "devdoc": {
    "details": "Defines the rules the validate transfers and the error messages",
    "methods": {},
    "title": "TransferRestrictions"
  },
  "userdoc": {
    "methods": {
      "constructor": "Constructor sets the address the validators contract which should be the token contract",
      "detectTransferRestriction(address,address,uint256)": {
        "notice": "This function detects whether a transfer should be restricted and not allowed. If the function returns SUCCESS_CODE (0) then it should be allowed."
      },
      "messageForTransferRestriction(uint8)": {
        "notice": "This function allows a wallet or other client to get a human readable string to show a user if a transfer was restricted.  It should return enough information for the user to know why it failed."
      }
    }
  }
}