{
  "contractName": "WhitelisterRole",
  "abi": [
    {
      "constant": false,
      "inputs": [
        {
          "name": "account",
          "type": "address"
        }
      ],
      "name": "removeOwner",
      "outputs": [],
      "payable": false,
      "stateMutability": "nonpayable",
      "type": "function"
    },
    {
      "constant": true,
      "inputs": [
        {
          "name": "account",
          "type": "address"
        }
      ],
      "name": "isOwner",
      "outputs": [
        {
          "name": "",
          "type": "bool"
        }
      ],
      "payable": false,
      "stateMutability": "view",
      "type": "function"
    },
    {
      "constant": false,
      "inputs": [
        {
          "name": "account",
          "type": "address"
        }
      ],
      "name": "addOwner",
      "outputs": [],
      "payable": false,
      "stateMutability": "nonpayable",
      "type": "function"
    },
    {
      "anonymous": false,
      "inputs": [
        {
          "indexed": true,
          "name": "addedWhitelister",
          "type": "address"
        },
        {
          "indexed": true,
          "name": "addedBy",
          "type": "address"
        }
      ],
      "name": "WhitelisterAdded",
      "type": "event"
    },
    {
      "anonymous": false,
      "inputs": [
        {
          "indexed": true,
          "name": "removedWhitelister",
          "type": "address"
        },
        {
          "indexed": true,
          "name": "removedBy",
          "type": "address"
        }
      ],
      "name": "WhitelisterRemoved",
      "type": "event"
    },
    {
      "anonymous": false,
      "inputs": [
        {
          "indexed": true,
          "name": "addedOwner",
          "type": "address"
        },
        {
          "indexed": true,
          "name": "addedBy",
          "type": "address"
        }
      ],
      "name": "OwnerAdded",
      "type": "event"
    },
    {
      "anonymous": false,
      "inputs": [
        {
          "indexed": true,
          "name": "removedOwner",
          "type": "address"
        },
        {
          "indexed": true,
          "name": "removedBy",
          "type": "address"
        }
      ],
      "name": "OwnerRemoved",
      "type": "event"
    },
    {
      "constant": true,
      "inputs": [
        {
          "name": "account",
          "type": "address"
        }
      ],
      "name": "isWhitelister",
      "outputs": [
        {
          "name": "",
          "type": "bool"
        }
      ],
      "payable": false,
      "stateMutability": "view",
      "type": "function"
    },
    {
      "constant": false,
      "inputs": [
        {
          "name": "account",
          "type": "address"
        }
      ],
      "name": "addWhitelister",
      "outputs": [],
      "payable": false,
      "stateMutability": "nonpayable",
      "type": "function"
    },
    {
      "constant": false,
      "inputs": [
        {
          "name": "account",
          "type": "address"
        }
      ],
      "name": "removeWhitelister",
      "outputs": [],
      "payable": false,
      "stateMutability": "nonpayable",
      "type": "function"
    }
  ],
  "bytecode": "0x608060405234801561001057600080fd5b50610995806100206000396000f3fe608060405234801561001057600080fd5b50600436106100625760003560e01c8063173825d9146100675780632f54bf6e146100ab5780637065cb48146101075780637d0c269f1461014b57806382c3f79c146101a7578063eaf9144a146101eb575b600080fd5b6100a96004803603602081101561007d57600080fd5b81019080803573ffffffffffffffffffffffffffffffffffffffff16906020019092919050505061022f565b005b6100ed600480360360208110156100c157600080fd5b81019080803573ffffffffffffffffffffffffffffffffffffffff16906020019092919050505061031e565b604051808215151515815260200191505060405180910390f35b6101496004803603602081101561011d57600080fd5b81019080803573ffffffffffffffffffffffffffffffffffffffff16906020019092919050505061033b565b005b61018d6004803603602081101561016157600080fd5b81019080803573ffffffffffffffffffffffffffffffffffffffff1690602001909291905050506103a5565b604051808215151515815260200191505060405180910390f35b6101e9600480360360208110156101bd57600080fd5b81019080803573ffffffffffffffffffffffffffffffffffffffff1690602001909291905050506103c2565b005b61022d6004803603602081101561020157600080fd5b81019080803573ffffffffffffffffffffffffffffffffffffffff16906020019092919050505061042c565b005b6102383361031e565b61028d576040517f08c379a000000000000000000000000000000000000000000000000000000000815260040180806020018281038252602e8152602001806108d1602e913960400191505060405180910390fd5b8073ffffffffffffffffffffffffffffffffffffffff163373ffffffffffffffffffffffffffffffffffffffff161415610312576040517f08c379a00000000000000000000000000000000000000000000000000000000081526004018080602001828103825260288152602001806109426028913960400191505060405180910390fd5b61031b81610496565b50565b600061033482600061050790919063ffffffff16565b9050919050565b6103443361031e565b610399576040517f08c379a000000000000000000000000000000000000000000000000000000000815260040180806020018281038252602e8152602001806108d1602e913960400191505060405180910390fd5b6103a2816105e5565b50565b60006103bb82600161050790919063ffffffff16565b9050919050565b6103cb3361031e565b610420576040517f08c379a000000000000000000000000000000000000000000000000000000000815260040180806020018281038252602e8152602001806108d1602e913960400191505060405180910390fd5b61042981610656565b50565b6104353361031e565b61048a576040517f08c379a000000000000000000000000000000000000000000000000000000000815260040180806020018281038252602e8152602001806108d1602e913960400191505060405180910390fd5b610493816106c7565b50565b6104aa81600061073890919063ffffffff16565b3373ffffffffffffffffffffffffffffffffffffffff168173ffffffffffffffffffffffffffffffffffffffff167fe594d081b4382713733fe631966432c9cea5199afb2db5c3c1931f9f9300367960405160405180910390a350565b60008073ffffffffffffffffffffffffffffffffffffffff168273ffffffffffffffffffffffffffffffffffffffff16141561058e576040517f08c379a00000000000000000000000000000000000000000000000000000000081526004018080602001828103825260228152602001806109206022913960400191505060405180910390fd5b8260000160008373ffffffffffffffffffffffffffffffffffffffff1673ffffffffffffffffffffffffffffffffffffffff16815260200190815260200160002060009054906101000a900460ff16905092915050565b6105f98160006107f590919063ffffffff16565b3373ffffffffffffffffffffffffffffffffffffffff168173ffffffffffffffffffffffffffffffffffffffff167fc82bdbbf677a2462f2a7e22e4ba9abd209496b69cd7b868b3b1d28f76e09a40a60405160405180910390a350565b61066a81600161073890919063ffffffff16565b3373ffffffffffffffffffffffffffffffffffffffff168173ffffffffffffffffffffffffffffffffffffffff167f3ed21605dd544629fb45f2ccaedcc095ba1dbea540fb6eaf5493a7479856b0be60405160405180910390a350565b6106db8160016107f590919063ffffffff16565b3373ffffffffffffffffffffffffffffffffffffffff168173ffffffffffffffffffffffffffffffffffffffff167f5f36f4f5999f34947706fca376b955319b858573bf9d6bc59303c9a4cd80ced060405160405180910390a350565b6107428282610507565b610797576040517f08c379a00000000000000000000000000000000000000000000000000000000081526004018080602001828103825260218152602001806108ff6021913960400191505060405180910390fd5b60008260000160008373ffffffffffffffffffffffffffffffffffffffff1673ffffffffffffffffffffffffffffffffffffffff16815260200190815260200160002060006101000a81548160ff0219169083151502179055505050565b6107ff8282610507565b15610872576040517f08c379a000000000000000000000000000000000000000000000000000000000815260040180806020018281038252601f8152602001807f526f6c65733a206163636f756e7420616c72656164792068617320726f6c650081525060200191505060405180910390fd5b60018260000160008373ffffffffffffffffffffffffffffffffffffffff1673ffffffffffffffffffffffffffffffffffffffff16815260200190815260200160002060006101000a81548160ff021916908315150217905550505056fe4f776e6572526f6c653a2063616c6c657220646f6573206e6f74206861766520746865204f776e657220726f6c65526f6c65733a206163636f756e7420646f6573206e6f74206861766520726f6c65526f6c65733a206163636f756e7420697320746865207a65726f20616464726573734f776e6572732063616e6e6f742072656d6f7665207468656d73656c766573206173206f776e6572a165627a7a7230582081f6dade64109d93c82d8bc83037eaaaa8796309991fa38a1647e42471e277f50029",
  "source": "pragma solidity 0.5.8;\n\nimport \"./OwnerRole.sol\";\n\ncontract WhitelisterRole is OwnerRole {\n\n    event WhitelisterAdded(address indexed addedWhitelister, address indexed addedBy);\n    event WhitelisterRemoved(address indexed removedWhitelister, address indexed removedBy);\n\n    Roles.Role private _whitelisters;\n\n    modifier onlyWhitelister() {\n        require(isWhitelister(msg.sender), \"WhitelisterRole: caller does not have the Whitelister role\");\n        _;\n    }\n\n    function isWhitelister(address account) public view returns (bool) {\n        return _whitelisters.has(account);\n    }\n\n    function addWhitelister(address account) public onlyOwner {\n        _addWhitelister(account);\n    }\n\n    function removeWhitelister(address account) public onlyOwner {\n        _removeWhitelister(account);\n    }\n\n    function _addWhitelister(address account) internal {\n        _whitelisters.add(account);\n        emit WhitelisterAdded(account, msg.sender);\n    }\n\n    function _removeWhitelister(address account) internal {\n        _whitelisters.remove(account);\n        emit WhitelisterRemoved(account, msg.sender);\n    }\n}",
  "sourcePath": "/Users/JohnDoe/Desktop/erc1404-simulator/presetupERC1404/contracts/roles/WhitelisterRole.sol",
  "compiler": {
    "name": "solc",
    "version": "0.5.8+commit.23d335f2.Emscripten.clang"
  },
  "schemaVersion": "3.0.20",
  "updatedAt": "2020-03-03T12:32:02.211Z",
  "devdoc": {
    "methods": {}
  },
  "userdoc": {
    "methods": {}
  }
}